{
  "contractName": "TokenFarm",
  "abi": [
    {
      "inputs": [
        {
          "internalType": "contract DappToken",
          "name": "_dappToken",
          "type": "address"
        },
        {
          "internalType": "contract DaiToken",
          "name": "_daiToken",
          "type": "address"
        }
      ],
      "payable": false,
      "stateMutability": "nonpayable",
      "type": "constructor"
    },
    {
      "constant": true,
      "inputs": [],
      "name": "daiToken",
      "outputs": [
        {
          "internalType": "contract DaiToken",
          "name": "",
          "type": "address"
        }
      ],
      "payable": false,
      "stateMutability": "view",
      "type": "function"
    },
    {
      "constant": true,
      "inputs": [],
      "name": "dappToken",
      "outputs": [
        {
          "internalType": "contract DappToken",
          "name": "",
          "type": "address"
        }
      ],
      "payable": false,
      "stateMutability": "view",
      "type": "function"
    },
    {
      "constant": true,
      "inputs": [
        {
          "internalType": "address",
          "name": "",
          "type": "address"
        }
      ],
      "name": "hasStaked",
      "outputs": [
        {
          "internalType": "bool",
          "name": "",
          "type": "bool"
        }
      ],
      "payable": false,
      "stateMutability": "view",
      "type": "function"
    },
    {
      "constant": true,
      "inputs": [
        {
          "internalType": "address",
          "name": "",
          "type": "address"
        }
      ],
      "name": "isStaking",
      "outputs": [
        {
          "internalType": "bool",
          "name": "",
          "type": "bool"
        }
      ],
      "payable": false,
      "stateMutability": "view",
      "type": "function"
    },
    {
      "constant": true,
      "inputs": [],
      "name": "name",
      "outputs": [
        {
          "internalType": "string",
          "name": "",
          "type": "string"
        }
      ],
      "payable": false,
      "stateMutability": "view",
      "type": "function"
    },
    {
      "constant": true,
      "inputs": [
        {
          "internalType": "uint256",
          "name": "",
          "type": "uint256"
        }
      ],
      "name": "stakers",
      "outputs": [
        {
          "internalType": "address",
          "name": "",
          "type": "address"
        }
      ],
      "payable": false,
      "stateMutability": "view",
      "type": "function"
    },
    {
      "constant": true,
      "inputs": [
        {
          "internalType": "address",
          "name": "",
          "type": "address"
        }
      ],
      "name": "stakingBalance",
      "outputs": [
        {
          "internalType": "uint256",
          "name": "",
          "type": "uint256"
        }
      ],
      "payable": false,
      "stateMutability": "view",
      "type": "function"
    },
    {
      "constant": false,
      "inputs": [
        {
          "internalType": "uint256",
          "name": "_amount",
          "type": "uint256"
        }
      ],
      "name": "stakeTokens",
      "outputs": [],
      "payable": false,
      "stateMutability": "nonpayable",
      "type": "function"
    },
    {
      "constant": false,
      "inputs": [],
      "name": "unStakeTokens",
      "outputs": [],
      "payable": false,
      "stateMutability": "nonpayable",
      "type": "function"
    },
    {
      "constant": false,
      "inputs": [],
      "name": "issueTokens",
      "outputs": [],
      "payable": false,
      "stateMutability": "nonpayable",
      "type": "function"
    }
  ],
  "bytecode": "0x60806040526040518060400160405280600f81526020017f4461707020546f6b656e204661726d00000000000000000000000000000000008152506000908051906020019061004f929190610164565b5034801561005c57600080fd5b50604051610f5e380380610f5e8339818101604052604081101561007f57600080fd5b81019080805190602001909291908051906020019092919050505081600260006101000a81548173ffffffffffffffffffffffffffffffffffffffff021916908373ffffffffffffffffffffffffffffffffffffffff16021790555080600360006101000a81548173ffffffffffffffffffffffffffffffffffffffff021916908373ffffffffffffffffffffffffffffffffffffffff16021790555033600160006101000a81548173ffffffffffffffffffffffffffffffffffffffff021916908373ffffffffffffffffffffffffffffffffffffffff1602179055505050610209565b828054600181600116156101000203166002900490600052602060002090601f016020900481019282601f106101a557805160ff19168380011785556101d3565b828001600101855582156101d3579182015b828111156101d25782518255916020019190600101906101b7565b5b5090506101e091906101e4565b5090565b61020691905b808211156102025760008160009055506001016101ea565b5090565b90565b610d46806102186000396000f3fe608060405234801561001057600080fd5b506004361061009e5760003560e01c80637547c7a3116100665780637547c7a31461022e5780637896bf1d1461025c578063be22f54614610266578063c93c8f34146102b0578063fd5e6dd11461030c5761009e565b806306fdde03146100a357806345bc78ab146101265780635eb186f81461017e57806360ab5852146101c85780636f49712b146101d2575b600080fd5b6100ab61037a565b6040518080602001828103825283818151815260200191508051906020019080838360005b838110156100eb5780820151818401526020810190506100d0565b50505050905090810190601f1680156101185780820380516001836020036101000a031916815260200191505b509250505060405180910390f35b6101686004803603602081101561013c57600080fd5b81019080803573ffffffffffffffffffffffffffffffffffffffff169060200190929190505050610418565b6040518082815260200191505060405180910390f35b610186610430565b604051808273ffffffffffffffffffffffffffffffffffffffff1673ffffffffffffffffffffffffffffffffffffffff16815260200191505060405180910390f35b6101d0610456565b005b610214600480360360208110156101e857600080fd5b81019080803573ffffffffffffffffffffffffffffffffffffffff169060200190929190505050610690565b604051808215151515815260200191505060405180910390f35b61025a6004803603602081101561024457600080fd5b81019080803590602001909291905050506106b0565b005b610264610a2f565b005b61026e610c6e565b604051808273ffffffffffffffffffffffffffffffffffffffff1673ffffffffffffffffffffffffffffffffffffffff16815260200191505060405180910390f35b6102f2600480360360208110156102c657600080fd5b81019080803573ffffffffffffffffffffffffffffffffffffffff169060200190929190505050610c94565b604051808215151515815260200191505060405180910390f35b6103386004803603602081101561032257600080fd5b8101908080359060200190929190505050610cb4565b604051808273ffffffffffffffffffffffffffffffffffffffff1673ffffffffffffffffffffffffffffffffffffffff16815260200191505060405180910390f35b60008054600181600116156101000203166002900480601f0160208091040260200160405190810160405280929190818152602001828054600181600116156101000203166002900480156104105780601f106103e557610100808354040283529160200191610410565b820191906000526020600020905b8154815290600101906020018083116103f357829003601f168201915b505050505081565b60046020528060005260406000206000915090505481565b600260009054906101000a900473ffffffffffffffffffffffffffffffffffffffff1681565b600160009054906101000a900473ffffffffffffffffffffffffffffffffffffffff1673ffffffffffffffffffffffffffffffffffffffff163373ffffffffffffffffffffffffffffffffffffffff16146104fc576040517f08c379a0000000000000000000000000000000000000000000000000000000008152600401808060200182810382526021815260200180610cf16021913960400191505060405180910390fd5b60008090505b60078054905081101561068d5760006007828154811061051e57fe5b9060005260206000200160009054906101000a900473ffffffffffffffffffffffffffffffffffffffff1690506000600460008373ffffffffffffffffffffffffffffffffffffffff1673ffffffffffffffffffffffffffffffffffffffff168152602001908152602001600020549050600081111561067e57600260009054906101000a900473ffffffffffffffffffffffffffffffffffffffff1673ffffffffffffffffffffffffffffffffffffffff1663a9059cbb83836040518363ffffffff1660e01b8152600401808373ffffffffffffffffffffffffffffffffffffffff1673ffffffffffffffffffffffffffffffffffffffff16815260200182815260200192505050602060405180830381600087803b15801561064157600080fd5b505af1158015610655573d6000803e3d6000fd5b505050506040513d602081101561066b57600080fd5b8101908080519060200190929190505050505b50508080600101915050610502565b50565b60066020528060005260406000206000915054906101000a900460ff1681565b60008111610726576040517f08c379a00000000000000000000000000000000000000000000000000000000081526004018080602001828103825260118152602001807f616d6f756e742063616e2774206265203000000000000000000000000000000081525060200191505060405180910390fd5b600360009054906101000a900473ffffffffffffffffffffffffffffffffffffffff1673ffffffffffffffffffffffffffffffffffffffff166323b872dd3330846040518463ffffffff1660e01b8152600401808473ffffffffffffffffffffffffffffffffffffffff1673ffffffffffffffffffffffffffffffffffffffff1681526020018373ffffffffffffffffffffffffffffffffffffffff1673ffffffffffffffffffffffffffffffffffffffff1681526020018281526020019350505050602060405180830381600087803b15801561080357600080fd5b505af1158015610817573d6000803e3d6000fd5b505050506040513d602081101561082d57600080fd5b81019080805190602001909291905050505080600460003373ffffffffffffffffffffffffffffffffffffffff1673ffffffffffffffffffffffffffffffffffffffff1681526020019081526020016000205401600460003373ffffffffffffffffffffffffffffffffffffffff1673ffffffffffffffffffffffffffffffffffffffff16815260200190815260200160002081905550600560003373ffffffffffffffffffffffffffffffffffffffff1673ffffffffffffffffffffffffffffffffffffffff16815260200190815260200160002060009054906101000a900460ff1661097c5760073390806001815401808255809150509060018203906000526020600020016000909192909190916101000a81548173ffffffffffffffffffffffffffffffffffffffff021916908373ffffffffffffffffffffffffffffffffffffffff160217905550505b6001600560003373ffffffffffffffffffffffffffffffffffffffff1673ffffffffffffffffffffffffffffffffffffffff16815260200190815260200160002060006101000a81548160ff0219169083151502179055506001600660003373ffffffffffffffffffffffffffffffffffffffff1673ffffffffffffffffffffffffffffffffffffffff16815260200190815260200160002060006101000a81548160ff02191690831515021790555050565b6000600460003373ffffffffffffffffffffffffffffffffffffffff1673ffffffffffffffffffffffffffffffffffffffff16815260200190815260200160002054905060008111610ae9576040517f08c379a00000000000000000000000000000000000000000000000000000000081526004018080602001828103825260198152602001807f7374616b696e6742616c616e63652063616e277420626520300000000000000081525060200191505060405180910390fd5b600360009054906101000a900473ffffffffffffffffffffffffffffffffffffffff1673ffffffffffffffffffffffffffffffffffffffff1663a9059cbb33836040518363ffffffff1660e01b8152600401808373ffffffffffffffffffffffffffffffffffffffff1673ffffffffffffffffffffffffffffffffffffffff16815260200182815260200192505050602060405180830381600087803b158015610b9257600080fd5b505af1158015610ba6573d6000803e3d6000fd5b505050506040513d6020811015610bbc57600080fd5b8101908080519060200190929190505050506000600460003373ffffffffffffffffffffffffffffffffffffffff1673ffffffffffffffffffffffffffffffffffffffff168152602001908152602001600020819055506000600660003373ffffffffffffffffffffffffffffffffffffffff1673ffffffffffffffffffffffffffffffffffffffff16815260200190815260200160002060006101000a81548160ff02191690831515021790555050565b600360009054906101000a900473ffffffffffffffffffffffffffffffffffffffff1681565b60056020528060005260406000206000915054906101000a900460ff1681565b60078181548110610cc157fe5b906000526020600020016000915054906101000a900473ffffffffffffffffffffffffffffffffffffffff168156fe6f6e6c79206f776e65722063616e2063616c6c20746869732066756e6374696f6ea265627a7a7231582047a819c610e50515979b3a4bf6f93f82214d934a1d9d5b049172f9239a8f818e64736f6c63430005100032",
  "source": "pragma solidity ^0.5.0;\r\nimport \"./DappToken.sol\";\r\nimport './DaiToken.sol';\r\n\r\ncontract TokenFarm {\r\n    string public name = \"Dapp Token Farm\";\r\n    address owner;\r\n    DappToken public dappToken;\r\n    DaiToken public daiToken;\r\n\r\n    mapping(address => uint) public stakingBalance;\r\n    mapping(address => bool) public hasStaked;\r\n    mapping(address => bool) public isStaking;\r\n\r\n    address[] public stakers;\r\n\r\n    constructor(DappToken _dappToken, DaiToken _daiToken) public {\r\n        dappToken = _dappToken;\r\n        daiToken = _daiToken;\r\n        owner = msg.sender;\r\n    }\r\n\r\n    // 1 Stakes Token (Deposit)\r\n\r\n    function stakeTokens(uint _amount) public {\r\n\r\n        require(_amount > 0, \"amount can't be 0\");\r\n\r\n        //Transfer Mock Dai to this contract for stacking\r\n        daiToken.transferFrom(msg.sender, address(this), _amount);\r\n\r\n        //Update Stacking Balacne\r\n        stakingBalance[msg.sender] = stakingBalance[msg.sender] + _amount;\r\n\r\n        // Add users to stackers array only if they haven't stacked\r\n        if(!hasStaked[msg.sender]) {\r\n            stakers.push(msg.sender);\r\n        }\r\n\r\n        hasStaked[msg.sender] = true;\r\n        isStaking[msg.sender] = true;\r\n    }\r\n\r\n    // 2 UnStaking Token (Withdraw)\r\n\r\n    function unStakeTokens() public {\r\n        uint balance = stakingBalance[msg.sender];\r\n\r\n        require(balance > 0, \"stakingBalance can't be 0\");\r\n\r\n        daiToken.transfer(msg.sender, balance);\r\n\r\n        stakingBalance[msg.sender] = 0;\r\n        isStaking [msg.sender] = false;\r\n    }\r\n\r\n    \r\n    // 3 Stakes Token (Issuing Token)\r\n    function issueTokens() public {\r\n        require(msg.sender == owner, \"only owner can call this function\");\r\n        for (uint i = 0; i<stakers.length; i++){\r\n            address recipient = stakers[i];\r\n            uint balance = stakingBalance[recipient];\r\n            if (balance > 0) {\r\n                dappToken.transfer(recipient, balance);\r\n            }\r\n        }\r\n    }\r\n    \r\n}\r\n",
  "sourcePath": "C:\\work\\learning\\truffle\\def-app-react\\src\\contracts\\TokenFarm.sol",
  "compiler": {
    "name": "solc",
    "version": "0.5.16+commit.9c3226ce.Emscripten.clang"
  },
  "schemaVersion": "3.4.3",
  "updatedAt": "2021-10-20T03:49:19.796Z",
  "networkType": "ethereum",
  "devdoc": {
    "methods": {}
  },
  "userdoc": {
    "methods": {}
  }
}